:020000040800F2
:10000000D80C002035020008F94A0008A541000874
:10001000C54A0008011D00083D5E00080000000000
:1000200000000000000000000000000097510008E0
:100030005D27000800000000955100085952000893
:100040004F0200084F0200084F0200084F0200084C
:100050004F0200084F0200084F0200084F0200083C
:100060004F0200084F0200084F0200084F0200082C
:100070004F0200084F020008512100085D210008CE
:100080004F0200084F0200084F0200084F0200080C
:100090004F0200084F0200084F0200088D28000898
:1000A0004F0200084F0200084F020008BD5200082E
:1000B000C9520008D5520008000000004F02000895
:1000C0004F02000800000000000000004F0200087E
:1000D00000000000715D00084F02000800000000F1
:1000E0004F0200084F0200084F02000800F002F81B
:1000F00000F090F80AA090E8000C82448344AAF132
:100100000107DA4501D100F085F8AFF2090EBAE82F
:100110000F0013F0010F18BFFB1A43F0010318473B
:10012000707B0000907B0000103A24BF78C878C133
:10013000FAD8520724BF30C830C144BF04680C60ED
:10014000704700000023002400250026103A28BF35
:1001500078C1FBD8520728BF30C148BF0B60704739
:100160006E2900F02382702900F06D83662906F065
:10017000DE86652906F0DB86672906F0D8866129C8
:1001800006F0D78603681B0A28BF41F08001692961
:1001900000F0D081642900F0CD81752900F0CA817A
:1001A0006F2900F0FA82782900F03983E92900F0FC
:1001B0009582E42900F09282F52900F08F82EF29E0
:1001C00000F0F782F82900F038830368DB0928BFC4
:1001D00041F08001632901F03B80732901F04080E8
:1001E000E32901F04B80F32901F050800020704793
:1001F0001FB501F09DF804000020002105F0C8FFA4
:10020000401C60600020002105F0ACFFE0601FBDD5
:1002100010B510BD01F05EF81146FFF7E9FF05F0DB
:10022000EDFE01F03BF903B4FFF7F2FF03BC01F070
:1002300083F900000948804709480047FEE7FEE7C8
:10024000FEE7FEE7FEE7FEE7FEE7FEE7FEE7FEE786
:1002500004480549054A064B70470000BB52000898
:10026000ED000008D8060020D80C0020D808002097
:10027000D808002053EA020C00F069802DE9F04B09
:100280004FF00006002B1FBFB3FA83F503FA05F405
:1002900024FA05F65E4012BF1643B2FA82F502FA5E
:1002A00005F4C5F120051EBF22FA05FC44EA0C0442
:1002B000203556EA044C4FEA144418BF641C4FF032
:1002C00000084FF00009904271EB030C39D300296C
:1002D00019BFB1FA81F701FA07F6B0FA80F700FA10
:1002E00007F6C7F120071EBF20FA07FC46EA0C06F6
:1002F0002037B6FBF4FCA7EB0507103F07F01F0BF8
:10030000CBF120060CFA0BFB2CFA06F644BFB346E1
:100310000026202FA4BF5E464FF0000B5BEA060CC0
:1003200008BF4FF0010B19EB0B09ABFB027C48EB4C
:100330000608C01B06FB02CC0BFB03CC71EB0C01C7
:10034000C1E70B46024641464846BDE8F08B13B56F
:100350004FF000004FF00001AFF30080BDE81C40FB
:10036000704700007CB51D4616460C00009001D079
:100370002044401E074B7B442A4669460190304684
:1003800000F02DF905461CB10020694600F03AF94D
:1003900028467CBD9502000010B5431C02E010F811
:1003A000011B71B18107FAD14FF0013202C88C1ADA
:1003B0008C4314EAC211F9D0C01A0A0603D0C01E39
:1003C00010BDC01A10BD0A0401D0801E10BD090264
:1003D000FCD0401E10BD4FF000020429C0F0128076
:1003E00010F0030C00F01B80CCF1040CBCF1020FE8
:1003F00018BF00F8012BA8BF20F8022BA1EB0C01BD
:1004000000F00DB85FEAC17C24BF00F8012B00F8B2
:10041000012B48BF00F8012B70474FF0000200B5D8
:10042000134694469646203922BFA0E80C50A0E817
:100430000C50B1F12001BFF4F7AF090728BFA0E8C5
:100440000C5048BF0CC05DF804EB890028BF40F891
:10045000042B08BF704748BF20F8022B11F0804FD3
:1004600018BF00F8012B704770477047704770B590
:10047000044685690068C10601D5302600E02026C3
:10048000C00707D070BDD4E9012130469047206AEB
:10049000401C20626D1EF6D570BD70B5044685699E
:1004A0000078C00707D170BDD4E901212020904712
:1004B000206A401C20626D1EF6D570BD09684A0591
:1004C00001D540B27047C905FCD500B27047096834
:1004D0004A0501D5C0B27047C905FCD580B2704746
:1004E00070B50C460546012A05D02878800600D54F
:1004F000EA69002302E0012305E05B1C934202D27B
:10050000E05C0028F9D1A869E618C01AA861286A39
:10051000184428622846FFF7AAFF04E0D5E9012124
:1005200014F8010B9047B442F8D32846FFF7B5FF03
:1005300070BD00002DE9F0410646002410687529C1
:10054000314616A510D0FFF7B9FF002802DA404265
:1005500013A507E031688A0701D512A502E0490713
:1005600004D511A5012401E0FFF7B1FF00210A2203
:1005700006F1240709E0B0FBF2FCB0FBF2F302FB4A
:100580001C00303078541846491C0028F3D123460B
:100590002A463046BDE8F04100F069BA000000008C
:1005A0002D0000002B0000002000000011680268F0
:1005B000006A530501D508700AE0D30501D508800B
:1005C00006E0130603D5C217C1E9000200E0086087
:1005D0000120704701694A1C02610878704700B524
:1005E0008FB0CDE901310021059105497944CDE96C
:1005F00003101146684600F031F90FB000BD00004D
:10060000E5FFFFFF0A6802F8010B0A607047D1E9B5
:1006100000239A4202D2531C0B60107070470000F6
:100620002DE9FF5F15468A460446DFF8AC80F844A2
:100630000027D8E900103E46CDE9001010E03AF856
:1006400016106A4602A800F025FE411C07D021784A
:10065000890603D5E269391891420DD80744761C02
:100660002078800602D5E069B84205DDAE42E6DBBF
:100670003AF816000028E2D1A069C01BA06120460C
:10068000FFF7F5FED8E90010CDE90010002017E0D3
:100690003AF818106A4602A800F0FCFDB0F1FF3FDE
:1006A00081460BD000250DF1080B05E0D4E90121AE
:1006B0001BF8050090476D1C4D45F7D308F101006C
:1006C000B0428046E4DB206A384420622046FFF7CF
:1006D000E4FEBDE8FF9F0000627500002DE9F041D7
:1006E0008046D21D22F007020025D2E90002F5293A
:1006F00015A614D0011E72F1000106DA0023D0EB1A
:10070000030063EB020211A608E0D8F800108B0783
:1007100001D50FA602E0490701D50EA60125114615
:10072000002408F1240704E000F05CF930323A5567
:10073000641C50EA0102F7D12B463246214640465E
:10074000BDE8F04100F093B9000000002D0000006A
:100750002B0000002000000030B4002100F1240430
:1007600008E002F00705D208303542EA4372DB08A0
:100770006554491C52EA0305F3D10468002310A212
:10078000250707D5A40600D421B1C46901230DA211
:10079000641EC46130BC00F06AB910B5044621463D
:1007A0001068FFF794FE02462046BDE81040002383
:1007B000D2E7D21D22F00701D1E90023CCE70000E7
:1007C0000000000030000000F0B40D46018809056B
:1007D00002D5214C7C4402E01F4C7C440E340021A5
:1007E00000F1240608E002F00F071209E75D42EA73
:1007F00003721B097754491C52EA0307F3D10278AC
:100800000023120704D5702D06D009B1022311343C
:100810002246F0BC00F02BB901231034F8E770B584
:1008200004460D4621461068FFF751FE0246294650
:100830002046BDE870400023C6E7D21D22F0070322
:10084000D3E90023C0E70368126843F02003036084
:100850000823C3610023B7E7C47300002DE9F05FEC
:10086000894604464FF0000ADFF874B1FB44C0F833
:1008700020A02046E1688847002874D0252806D0AB
:10088000D4E901219047206A401C2062F1E700264C
:100890005F462046E16888472028054607DB312D62
:1008A00005D2781910F8200C08B10643F1E7B0071B
:1008B00001D526F00406C4F81CA00027C4F818A02F
:1008C0002A2D09D0284605F04EFB38B304EB8708E3
:1008D000303DC8F8185019E059F8041B204604EBC5
:1008E00087029161E1688847012F054618D1E069C8
:1008F000002820DA26F020061DE0D8F8180000EBCA
:10090000800005EB40003038C8F818002046E16848
:100910008847054605F027FB0028EED1012F0AD0B5
:100920002E2D08D12046E16888477F1C0546022FFE
:1009300046F02006C4DBA069002803DA404246F0F6
:100940000106A061F00701D026F010066C2D0BD037
:10095000682D09D04C2D39D06A2D35D0742D35D065
:100960007A2D33D016E038E0E1682F4620468847DC
:10097000B842054609D16C2F26D04FF48060E1685B
:10098000064320468847054604E06C2F1AD04FF4F2
:10099000807006430DB3A5F14100192802D8203517
:1009A00046F400664A462946204626604E46FFF732
:1009B000D7FB80B101280BD0F61D26F0070000F10F
:1009C000080956E74020E4E78020D8E70020D6E772
:1009D00006F104094DE7284652E7206ABDE8F09F7A
:1009E0005473000030B5B0F10A024FEA900E71F175
:1009F00000034EEA817EB0EB0E0061EB91014FEAFD
:100A0000101E4EEA017E10EB0E0041EB11114FEA71
:100A1000102E4EEA016E10EB0E0041EB11214FEA51
:100A2000104E4EEA014E10EB0E0041EB1141401802
:100A300041F100014FEAD00040EA41704FEAD10194
:100A400010EB80054FEA810444EA907444EB010402
:100A50006D1944EB0404521BA3414FF0000348BF3F
:100A60000A3200D530BD401C41F1000130BD2DE9F6
:100A7000F0470D4699469246044600F12408016865
:100A8000880604D5E06921F01001216000E0012012
:100A9000A84201DD471B00E00027A1697A1902EB9B
:100AA0000900081AA0612078C00602D42046FFF78A
:100AB000DEFC002608E0D4E901211AF80600904780
:100AC000206A401C761C20624E45F4DB2078C0066C
:100AD0000AD52046FFF7CBFC06E0D4E901213020FF
:100AE0009047206A401C2062381EA7F10107F4DC01
:100AF00007E0D4E9012118F805009047206A401C5E
:100B00002062281EA5F10105F3DC2046FFF7C5FC95
:100B10002078000602D50220BDE8F0870120FBE71F
:100B200070472DE9FF4F0C461E464FF0FF378BB044
:100B3000D2E90001DDF860800A908A46C1F30A55C7
:100B400005B93D46002108464FF00000BAF1000FFC
:100B500000F4400005DA00EB80004FF4400101EAA8
:100B600050004FEA9059B9F1010F00DDB9460A98DB
:100B700050EA4A000ED044F61050A5F2FF35454326
:100B80002F14B8F1000F1ED07542291E1EDDC9F1C9
:100B900000021CE0B8F1010F4FF0000001D030213D
:100BA00003E0F24305E02154401CB042FBDB304639
:100BB0000022002121540B99C1F80880C1E90020CE
:100BC0000FB0BDE8F08FBD1B6D1CDEE74A4600DAB2
:100BD000694206A800F0F0FB06AB93E8070003AB00
:100BE00083E8070050460A9900F0ADFC8DE8070045
:100BF000A0F500501F3800900398002D0ADD42F246
:100C00001F014A460844002303A90390684600F0E8
:100C100016FF09E0A0F500504A461F38002303A93B
:100C20000390684600F020FF8DE807000004000CE8
:100C300003D04FF0FF30410800E01046B8F1000F3C
:100C400003D00022009215461EE0751E05D4FFF762
:100C5000C9FE303262556D1EF9D5B34601220843F4
:100C600002D000227F1C04E02078302801D100222D
:100C70007F1E002A099784D01DE0112D07DAFFF7A7
:100C8000B1FE303262556D1C50EA0102F5D10843C5
:100C900002D00098C8B10EE00021681E05E0235C78
:100CA000625C63542254401E491C8142F7DBAB4610
:100CB000A81B401E0990002004F80B000B98099A0D
:100CC000C0F80880C0E9002B7AE711264FF0000831
:100CD00057E72DE9F04F88460446D21D22F0070160
:100CE00091B0D1E90001CDE90A0105F018F90246F9
:100CF0000B98C00F01D02D2007E02068810701D597
:100D00002B2002E0202101EAC000032A099001D033
:100D1000072A05DB03464146204600F00DFB0BE1A8
:100D20002078800601D5E06900E00620B8F1650F63
:100D3000814606D0B8F1660F18D0B8F1670F70D1B0
:100D400031E00020B9F1110F009001DB112301E027
:100D500009F101030AAA01A90CA8FFF7E2FEDDE9E7
:100D60000C70002609F10105834647E001204B463F
:100D700000904FF000470AAA01A90CA8FFF7D1FE86
:100D8000DDE90DB00C995D46002610B909F10100AE
:100D90000D18B9EB050003D4C0F1FF3609F10105C8
:100DA000A5EB09002BE0B9F1010F01DA4FF00109C1
:100DB0000020B9F1110F0090484601DD112300E039
:100DC00003460AAA01A90CA8FFF7ABFEDDE90C70E7
:100DD0004D4600268346207800070AD4AB4500DA4A
:100DE0005D4601A8012D04DD411911F8011C3029CF
:100DF00007D04F4502DA17F1040F04DA01208246CA
:100E00000FE06D1EEEE7002F02DCED1B3E4403E019
:100E1000781CA84200DD7D1CB81B00F1010A4FF0D0
:100E200000472078000703D4AA4501DB4FF0FF3AC2
:100E30000021B7F1004F0DF143088DF8431024D085
:100E400002202B23002F01DA7F422D230A21021ECC
:100E5000A0F1010000DC5FB197FBF1FC97FBF1F220
:100E600001FB1C7C17460CF1300C08F801CDEEE7B5
:100E7000A8F1010003702188090501D5452100E092
:100E80006521A0F1010800F8011C09980FA9A1EB48
:100E90000807FF1D00B10120411901EBEA70A169AB
:100EA0003844081A401EA0612078C00602D42046AB
:100EB000FFF7DDFA099828B1D4E901219047206AAB
:100EC000401C20622078C00622D52046FFF7CFFACA
:100ED0001EE0002E04DBB34502DD01A8805D00E0CA
:100EE0003020D4E901219047206A401C2062761C02
:100EF000AAF101005FEA000A0AD100F019FAC068FD
:100F00000168405CD4E901219047206A401C2062BE
:100F1000281EA5F10105DCDC07E0D4E9012118F861
:100F2000010B9047206A401C2062381EA7F1010780
:100F3000F3DC2046FFF7B1FA032011B041E60000D0
:100F40002DE9F04F04460D46D21D22F0070089B06E
:100F5000D0E900974846394604F0E1FF0246F80F11
:100F600001D02D2307E02068810701D52B2302E063
:100F7000202101EAC0038DF820300BB1012000E0F0
:100F80000020032A824601D0072A04DB2946204696
:100F900000F0D2F93FE12078800601D40D2500E071
:100FA000E569C7F30A560D2D49DA00214FEA175BB0
:100FB00008464FF00000002F00F4400007DA00EB75
:100FC00080004FF4400100EBD07001EA6000811511
:100FD000012901DD4FF0FF3100224FEA850CBCF101
:100FE000180F06D31346ACF118004FF08052C240E0
:100FF00003E04FF4801323FA0CF30CF10C0CBCF15A
:10100000200F04D3ACF1200C09FA0CF001E007FA30
:101010000CF000294FF0004801DD18B90FE00ED1A7
:1010200040450CD319EB02095F4121B9404502D17B
:101030009F4329EA0209BBEB175F00D0761C20888A
:10104000000502D57B48784402E07A487844193894
:1010500008AA302302F80A30037C0AF10101002EAD
:101060000AF1020A53546A4602DC4FF0300101E0F3
:101070004FF031014FF001088DF8001002D0A6F2B8
:10108000FF3603E059EA470100D06B4E002D02DC29
:101090002178090704D54FF002082E218DF80110A0
:1010A000C44600210BE0C7F303433F01C35C491C66
:1010B0006D1E02F80830052908F1010801DA002D3B
:1010C000F1DC00210CE000EB1973491C1B786D1E4C
:1010D000082902F808304FEA091908F1010801DA75
:1010E000002DF0DC21688B0602D516E0A8F101087E
:1010F000E04505DD02EB080313F8013C302BF5D089
:10110000B8F1000F09DD02EB080313F8013C2E2BA8
:1011100003D1090701D4A8F10108002D05DD3E2106
:1011200002F808106D1E08F10108407C002E02F83C
:10113000080008F1010804DA2D20764202F80800C0
:1011400002E02B2002F808000A214FF47A70864250
:1011500008F101080BDB96FBF0F3303302F808309E
:1011600096FBF0F308F1010800FB136601E0642E22
:101170000CDB642096FBF0F3303302F8083096FB6A
:10118000F0F308F1010800FB136601E00A2E06DB0C
:1011900096FBF1F0303002F8080008F1010896FBE8
:1011A000F1F001FB1060303002F80800A16908F18D
:1011B000010808EB050202EB0A00081AA06120787A
:1011C000C00602D42046FFF752F9216A08AE01EBAF
:1011D0000A00206204E0D4E9012116F8010B9047CF
:1011E000BAF1010AF7D22078C00602D52046FFF7EF
:1011F0003EF96E4609E016F8010B3E280FD0D4E9FF
:1012000001219047206A401C2062B8F10108F2D207
:101210002046FFF742F909B00320BDE8F08F206AAD
:101220002844206203E0D4E90121302090476D1E5C
:10123000EBD3F8E79E6B000002FCFFFF10B543699B
:1012400013B1AFF3008001E0FFF74AF9012010BDB0
:10125000127800F124010A7000224A700122EDE7A1
:1012600011684FF0FF32E9E710B5436913B1AFF3EE
:10127000008001E0FFF7D4F9012010BD128800F1D1
:10128000240182840022C2840122EDE711684FF01C
:10129000FF32E9E770B516460C46054600F040F807
:1012A000036893F80101012806D0FF2C0FD8185DC0
:1012B00068B101202C7070BDD3F807013246214679
:1012C00003F2071303442846BDE8704018474FF067
:1012D000FF3070BD754600F0EBF8AE46050069467C
:1012E000534620F00700854618B020B5FEF7B0FF42
:1012F000BDE820404FF000064FF000074FF0000817
:101300004FF0000B21F00701AC46ACE8C009ACE897
:10131000C009ACE8C009ACE8C0098D4670470000C0
:1013200010B500F005F8001D10BD00BF654E0000AF
:1013300000487047980600202DE9F0411F460446FA
:1013400003260168072A01F4006004DB08B116A532
:1013500005E016A503E008B115A500E015A521F0EC
:1013600010002060A069C01EA0610FB1401EA061E6
:101370002046FFF77CF84FB1D4E901213846904769
:10138000206A401C2062C01C206206E0206AFAE746
:10139000D4E9012115F8010B9047761EF8D22046BA
:1013A000FFF77BF8BDE8F0814E414E006E616E00A4
:1013B000494E4600696E66002DE9F04781461646A3
:1013C0008AB0354878440DC88DE80D00324878441D
:1013D000801C03AC0DC884E80D0041F69B30084426
:1013E000372190FBF1F290FBF1F5A5F1800501FBAF
:1013F00012041B3C02D56442012000E00020DFF80B
:1014000098A080460027FA44AAF1BE0A0EE0E00741
:101410000AD03246684607EB470101230AEB8101F7
:1014200000F022FB8DE8070064107F1C002CEED139
:10143000194F7F44AE3F19E0E80715D007EB0410C1
:101440000DF1180A90E80E008AE80E00C068F0421C
:1014500001D1981908903246012306A903A800F08B
:1014600003FB03AB83E807006D10641C002DE3D180
:101470004FF0010332466946B8F1000F03A802D0CD
:1014800000F0DDFA01E000F0EFFAC9E90001C9F867
:1014900008200AB0BDE8F087B068000010B5044627
:1014A000AFF300802046BDE81040FEF7BCBE000050
:1014B00000487047780600204FF0013C50F8042B9C
:1014C00051F8043B9A4221D1A2EB0C03934313EA57
:1014D000CC1317D150F8042B51F8043B9A4215D184
:1014E000A2EB0C03934313EACC130BD150F8042B5B
:1014F00051F8043B9A4209D1A2EB0C03934313EA3F
:10150000CC13DBD04FF00000704700BFD01A01BAF7
:10151000B1FA81F101F0180122FA01F0CB40C1F1DA
:101520002001DBB2C0B2C01A2CFA01F3D11A9143E8
:1015300011EAC311E6D1704701491820ABBEFEE79E
:101540002600020070475FEA400C08BF91F0000FD0
:101550004FEA8C234FEAC12243EA51514FEA1C5013
:1015600018BF00F5F0404FEA300018BF41F00041CD
:101570005FEA6C5C00F02980BCF1FF3F08BF40F0DF
:1015800080407047130C06BF12044FF0100C4FF050
:10159000000C130E04BF12020CF1080C130F04BF51
:1015A00012010CF1040C930F04BF92000CF1020C19
:1015B000D30F04BF52000CF1010C11464FF0000292
:1015C000A0F11F00A0EB0C00704711F0004F08BF06
:1015D000704731F000413FF4D5AF0B0C06BF090452
:1015E0004FF0100C4FF0000C0B0E04BF09020CF171
:1015F000080C0B0F04BF09010CF1040C8B0F04BF86
:1016000089000CF1020CCB0F04BF49000CF1010C56
:10161000CCF12003A0EB0C0022FA03F302FA0CF247
:1016200041EA030100F10100704720F07F4C80EA9D
:10163000030023F07F47ACEB070303F57C5300F076
:10164000004003F1FF032DE980494FEA154B09B42F
:101650004FEA144325EA0B4E24EA03480FF204260E
:1016600006EB132749083E785FEA320203FB066760
:10167000C7F5000707FB06F64FEA54374FEAD64690
:1016800006F1020607FB066CCCF1005C4FEA1C4732
:101690002CEA074C07FB06F40CFB06F504EB154699
:1016A0004FEA961634BF00204FF000404FEAD13782
:1016B00006FB07FC4FEA1C4C0CFB0BF7D21B03FB91
:1016C0000CF761EB07010CFB0EF7B0EB074072EB78
:1016D00017420CFB08F734BFA2EB0742B2EB0742FC
:1016E00061EB17414FEA0C444FEA910706FB07FCF8
:1016F0004FEA1C4C0CFB0BF7B0EBC74072EB5732B8
:1017000003FB0CF734BFA2EBC742B2EBC74261EB5D
:1017100057310CFB0EF7B0EBC70072EB57720CFBA6
:1017200008F734BFA2EBC702B2EBC70261EB5771F7
:10173000039F4FEA816141EA921104EBCC044FEA26
:10174000D1374FEA826206FB07FC42EA90124FEA69
:1017500080604FEA1C4C0CFB0BF7D21B03FB0CF711
:1017600061EB07010CFB0EF7B0EB074072EB174281
:101770000CFB08F734BFA2EB0742B2EB074261EB68
:1017800017414FEA8C554FEA910704EB9C2406FB66
:1017900007FC4FEA1C4C0CFB0BF7B0EBC74072EB9D
:1017A000573203FB0CF734BFA2EBC742B2EBC74280
:1017B00061EB57310CFB0EF7B0EBC70072EB5772C1
:1017C0000CFB08F734BFA2EBC702B2EBC70261EB18
:1017D000577115EB4C254FEA816141EA92114FEAAE
:1017E00082624FEAD13742EA901206FB07FC44F1CD
:1017F00000044FEA80604FEA1C4C0CFB0BF7D21B35
:1018000003FB0CF761EB07010CFB0EF7B0EB074095
:1018100072EB17420CFB08F734BFA2EB0742B2EBA6
:10182000074261EB174115EB1C154FEA813141EA84
:1018300092414FEA823242EA90424FEA80304FEAC8
:101840000C7644F1000448EA03434EEA0B484FF09B
:10185000000EB2EB080C71EB030724BF6246394659
:101860004EEB0E0E4FF0000B0018524149414BEB6E
:101870000B0BB2EB080C71EB03077BF1000B24BFE1
:10188000624639464EEB0E0E4FF0000B00185241E7
:1018900049414BEB0B0BB2EB080C71EB03077BF1EF
:1018A000000B24BF624639464EEB0E0E51EA02078A
:1018B00018BF46F0010616EB0E7655F1000254F102
:1018C000000103D5BDE88901BDE80088BDE88901B4
:1018D000BDE80048B619524141EB0101A3F10103F3
:1018E000704780807F7E7D7C7B7A7978777676758D
:1018F0007473727171706F6E6E6D6C6C6B6A6A6905
:101900006868676666656464636362616160605F9E
:101910005F5E5E5D5D5C5C5B5B5A5A595958585717
:10192000575656555555545453535252525151507F
:1019300050504F4F4F4E4E4D4D4D4C4C4C4B4B4BD2
:101940004A4A4A4949494848484747474746464618
:101950004545454444444443434343424242424153
:101960004141002B9C4630D477002BD01CB54FEA68
:10197000370703B44FF010004FF01001BAF1000F19
:1019800006D0BCF1000FDCBF40F0080040F00801B9
:101990004FF000000FBCBDE810400BF1010BBBF194
:1019A000010F08BF5FEA170722BF12F1010211F110
:1019B00001014FF0004143F1000300F0004043EA11
:1019C00000007047F9D35708D0E746EA064613F1FE
:1019D000400F4FEA16461FDD13F1200FDFBF1643FD
:1019E0000A46002120335B42BED0C3F1200746EAFD
:1019F000064602FA07F74FEA164646EA0706C3F11B
:101A0000200722FA03F201FA07F721FA03F14FF057
:101A1000000342EA0702A7E746EA020646EA06464C
:101A20004FEA164646EA0106BCBF46EA0646360CB1
:101A30004FF000034FF000024FF0000194E72DE952
:101A4000804C9A46934670B491E8380007C831EA52
:101A5000400C48BF34EA430C03D5FFF7E6FDFFF71F
:101A600080FFF0BCBDE8008C2DE9804C9A4693467F
:101A700070B491E8380007C810F0804F08BF13F029
:101A8000804F03D100F005F8FFF76BFFF0BCBDE815
:101A9000008C20F07F4780EA030023F07F4C07EBA7
:101AA0000C03A3F57C5300F00040A3F1FE0392F079
:101AB000000F00F0B38095F0000F00F077802DE963
:101AC00001494FEA11404FEA144621EA004800FB61
:101AD00006FC24EA064708FB06F607FB08F800FBAD
:101AE00007F718EB06484CEB164C4FEA124B18EB75
:101AF00007484FEA15464CEB174022EA0B4E0BFB0A
:101B000006FC25EA06470EFB06F607FB0EFE0BFB5E
:101B100007F71EEB064E4CEB164C4FF000061EEB83
:101B2000074E4CEB174B18EB0B0840F1000018EB7D
:101B30000E0B58EB000840F100008F1A4FF0000127
:101B40003CBFC943661B14BFB5EB040C00213CBF6E
:101B5000C943F61B4FEA17444EEA8E0E27EA0445A6
:101B60004FEA1C4704FB07622CEA074C05FB07F70A
:101B70000CFB05F604FB0CFC16EB074642EB174288
:101B800016EB0C4642EB1C421BEB060658EB02021E
:101B9000414146EA9E0601D5BDE80189B619524188
:101BA00041EB0101A3F10103BDE801894FEA1445AE
:101BB0004FEA114724EA054621EA074C05FB07F4E2
:101BC00006FB07F70CFB06F105FB0CFC11EB0741CC
:101BD00044EB17444FEA124711EB0C4144EB1C4411
:101BE00022EA074C05FB07F206FB07F70CFB06F69B
:101BF00005FB0CFC16EB074642EB174216EB0C46B6
:101C000042EB1C456A1854F1000148BF7047B619F1
:101C1000524141EB0101A3F10103704795F0000F20
:101C200037D04FEA11424FEA144721EA024624EA2C
:101C3000074C02FB07F106FB07F70CFB06F402FB5F
:101C40000CFC14EB074441EB17414FEA154714EB2A
:101C50000C4441EB1C4125EA074C02FB07F506FB4F
:101C600007F70CFB06F602FB0CFC16EB074645EBF0
:101C7000174516EB0C4645EB1C42121951F10001B9
:101C800048BF7047B619524141EB0101A3F101036E
:101C900070474FEA14454FEA114724EA054621EA06
:101CA000074C05FB07F106FB07F70CFB06F24FF0AC
:101CB000000605FB0CFC12EB074241EB174112EB4F
:101CC0000C4251EB1C4148BF7047921841EB010197
:101CD000A3F101037047000013B508499DF80420E3
:101CE0000078114411F8032D10440870034803F0E4
:101CF000AAFB01A803F012FC1CBD00006A00002032
:101D0000FEE7000000220821014801F01EB9000092
:101D10000008014001220821014801F016B9000025
:101D20000008014010B500780B4C022804D120793E
:101D3000401C00F001002071074A20791432111F65
:101D400028B1022000F010FE0220E07010BD01203A
:101D500000F00AFE0120F8E74C000020FEB5044622
:101D600000F09AFA20781024694D01282CD002281E
:101D700078D0032875D0042825D103F0B9FB286951
:101D800004F00AFF0246032304212020009403F0FC
:101D90003BF800940323042150206A6903F034F8CF
:101DA000E878234601287DD05AA20421002003F0C0
:101DB0005DF8286904F034FE6A69009202460B4619
:101DC00056A002F081FEFEBD614E0094042372799C
:101DD0000221082002F5FA6203F016F800940223AB
:101DE00032791946382003F00FF800940223F27874
:101DF0001946582003F008F80094B2780223042111
:101E00000D2003F001F800947278022304212D20A4
:101E100002F0FAFF00943278022304214D2002F0F0
:101E2000F3FF00F095FBE860024615230621002031
:101E3000009402F07FFFE86804F0F2FD454A464B4B
:101E400004F006FC0022454B04F0EAF904F0B6F970
:101E50000246152306213E20009402F06BFFFEBDD2
:101E600000E01CE000F0C2FDA8B10120A87003F062
:101E7000D9F910233AA20221002002F0F7FF3948D5
:101E8000C178437902798DE80E0083784278017831
:101E900035A002F019FEBDE8FE4003F029BB03F0B7
:101EA0007BF900E031E0054603F086F9064603F0D1
:101EB0001FFB01231A4602212020009402F0A4FFF8
:101EC0000123022204212020009402F09DFF2123FF
:101ED0002A4602212820009402F02CFF21233246BA
:101EE00004212820009402F025FF304604F098FDDC
:101EF00004460E46284604F093FDCDE9004602460E
:101F00000B4628A002F0E0FDA9E72EA24DE7000055
:101F10004C0000204348323A00000000CAE4C8EBFD
:101F2000B2B6BBF1D5BCBFD5B1C83A2530322E31DF
:101F30006625252C20CAE4C8EBB2B6BBF1C6B5C2F3
:101F4000CAD6B53A2538644B487A0D0A000000001D
:101F500044000020CDCCCCCCCCCCFC3F0000404099
:101F60004F4B00008C000020B4AEBFDABDD3CAD501
:101F7000C9E8B6A8CAB1BCE4A3BA3230253032648D
:101F8000C4EA25303264D4C225303264C8D5253045
:101F90003264CAB125303264B7D625303264C3EB1F
:101FA0000D0A0000BEE0C0EBD6B5313A252E3666EC
:101FB000434D2C20BEE0C0EBD6B5323A252E366616
:101FC0004D0D0A004348313A0000000003B583B0CC
:101FD0003B499DF81020092A04D00B2A0BD00A2A6D
:101FE00023D067E00078022864D10878401C00F014
:101FF000010008705EE0007802285BD18878012833
:1020000058D100208870014606222E4800F004FCBA
:10201000C82000F0A4FB2A4806220021183000F056
:10202000C5FB102328A2022141E00078022841D1FB
:1020300001204870224806220021183000F0ECFBF5
:10204000C82000F08CFB1E48062208211E3000F03C
:10205000E3FB1B481830C178437902798DE80E0004
:1020600083784278017819A002F02EFD642000F0F8
:1020700076FB13481E30C178437902798DE80E0053
:1020800083784278017821A002F01EFD0C481830B8
:1020900000F054F910232DA20421002002F0E6FEE6
:1020A0004FF4FA7000F05BFB102307A2042100201C
:1020B00002F0DCFE04A803F031FA05B000BD000018
:1020C0004C0000208C00002020200000454550528C
:1020D0004F4D20B4E6C8EBC9E8B6A8CAB1BCE4A32A
:1020E000BA323025303264C4EA25303264D4C22595
:1020F000303264C8D525303264CAB125303264B775
:10210000D625303264C3EB0D0A000000454550521D
:102110004F4D20B4E6C8EBC4D6D6D3CAB1BCE4A3B5
:10212000BA323025303264C4EA25303264D4C22554
:10213000303264C8D525303264CAB125303264B734
:10214000D625303264C3EB0D0A0000004F4B00006F
:10215000014800F0C7BC0000F40100200C4882B028
:102160000068800410D50B4900200A681368526883
:102170000092094A1070202281F83D20074901226F
:1021800081F8212081F82000044802B000F0AABCA8
:10219000000002406C0100207C000020F4010020BF
:1021A00030B590F840500124AC40C56B6C600468B9
:1021B00063604368102B036803D099600068C260B5
:1021C00030BD9A600068C16030BD000010B50B469C
:1021D000044603F025FE0549012008702146BDE8AC
:1021E00010401A46024801F087BF00007C00002022
:1021F0006C0100202DE9F0410025264F06462C46B3
:102200002A462021384600F0A0FE00220821384648
:1022100000F09BFE032000F0B8FA0122202138468E
:1022200000F093FE032000F0B0FA304600F03AF9D7
:1022300003F0A0FE3E46022000F0A7FA6408012247
:102240000821304600F081FE042000F09EFA0022B2
:102250000821304600F079FE0E2000F096FA102199
:10226000304600F065FE08B144F080046D1CEDB20C
:10227000082DE0D3022000F088FA00222021304609
:1022800000F063FE00221021304600F05EFE204682
:10229000BDE8F081000C014010B58120FFF7AAFFD6
:1022A00000F00F010009244C00EB800001EB40001E
:1022B00020708320FFF79EFF00F00F01000900EB64
:1022C000800001EB400060708520FFF793FF00F075
:1022D0000F01000900EB800001EB4000A070872097
:1022E000FFF788FF00F00F01000900EB800001EB11
:1022F0004000E0708920FFF77DFF00F00F0100092A
:1023000000EB800001EB400020718D20FFF772FF91
:1023100000F00F01000900EB800001EB400060714C
:102320008B20FFF767FF00F00F01000900EB800032
:1023300001EB4000A07110BD4400002070B50546BF
:1023400000218E2000F0D4F868790A24B0FBF4F163
:1023500004FB1101B0FBF4F001EB0010C1B28020CE
:1023600000F0C6F82879B0FBF4F104FB1101B0FBD2
:10237000F4F001EB0010C1B2822000F0B9F8E87867
:10238000B0FBF4F104FB1101B0FBF4F001EB001021
:10239000C1B2842000F0ACF8A878B0FBF4F104FBE3
:1023A0001101B0FBF4F001EB0010C1B2862000F087
:1023B0009FF86878B0FBF4F104FB1101B0FBF4F076
:1023C00001EB0010C1B2882000F092F807218A20AA
:1023D00000F08EF82878B0FBF4F104FB1101B0FB9B
:1023E000F4F001EB0010C1B28D2000F081F8BDE8DF
:1023F000704080218E2000F07BB8000070B5FFF7A0
:102400004BFF1C4A0A20A2F10C011379B3FBF0F434
:1024100030340C70B3FBF0F400FB143330334B70EA
:102420002F238B70D378B3FBF0F43034CC70B3FB34
:10243000F0F400FB143330330B7100234B719478AC
:10244000891DB4FBF0F530350D70B4FBF0F500FBE1
:10245000154430344C703A248C705278B2FBF0F44E
:102460003034CC70B2FBF0F400FB14203030087133
:102470004B7170BD4400002010B5FFF70DFF0848F8
:10248000A0F1120142790A7002794A70C2788A700A
:102490008278CA7042780A710078487110BD0000D5
:1024A0004400002070B50546002403F07FFD0F4E68
:1024B00000220821304600F048FD00220821304665
:1024C00000F043FDE80701D0012200E000221021C6
:1024D000304600F03AFD01220821304600F035FD7B
:1024E000641C6D08E4B2082CE7D370BD000C0140F9
:1024F00070B5164E04460D4600222021304600F0ED
:1025000024FD00220821304600F01FFD012000F0CC
:102510003CF901222021304600F017FD022000F096
:1025200034F92046FFF7BEFF2846FFF7BBFF002225
:102530002021304600F009FD00220821304600F03D
:1025400004FDBDE87040022000F01FB9000C0140FE
:1025500010B500F0C5F8442000F0CCF800F0C0F849
:10256000BE2000F0C7F800F071F8044600F06EF8E5
:10257000000202B252EA04006FF0030401D5C04326
:10258000401C04F029FB2146BDE8104004F005BDC5
:1025900010B500F01DF80122D103054800F0D5FC6C
:1025A000FFF7D6FF00F080F8BDE8104000F020B83B
:1025B000000801401FB54FF400400090002001903A
:1025C00002906946014800F0D3FB1FBD000801409E
:1025D0001FB54FF4004000900120019003200390AC
:1025E0006946024800F0C4FB1FBD0000000801401E
:1025F00070B50024FFF7DEFF4FF40045124E04E0F3
:10260000641CE4B2012000F0C0F82946304600F016
:102610008FFC10B1642CF3D30FE0642C0DD2002496
:1026200004E0641CE4B2012000F0AFF82946304613
:1026300000F07EFC18B1F02C04D3012070BDF02C0A
:10264000EFD3FAE7002070BD000801402DE9F0410A
:10265000002635464FF40047DFF84880FFF7B8FF03
:10266000002239464446404600F06FFC0A2000F044
:102670008CF8FFF79FFF3946204600F059FC0128EF
:102680000DD000242D2000F080F8AC4034436D1CA8
:10269000EDB2E6B2082DE1D33046BDE8F081012469
:1026A000F0E700000008014070B5FFF791FF0B4D07
:1026B0004FF4004400222146284600F046FC40F238
:1026C000EE2000F062F801222146284600F03DFC91
:1026D000BDE870400F2000F058B80000000801402D
:1026E00010B5FFF7E1FFFFF783FFBDE81040CC20F6
:1026F000AFF300802DE9F0410546FFF769FF164F63
:1027000000244FF4004600BF15F0010F4FEA5505B5
:102710004FF00002314638460BD000F016FC052081
:1027200000F033F801223146384600F00EFC41201B
:102730000AE000F00AFC462000F027F801223146AA
:10274000384600F002FC022000F01FF8641CE4B2DE
:10275000082CD9D3BDE8F08100080140704700B5CE
:1027600002464FF47A7302E0184600F00EF8521E4B
:10277000FAD200BD30B504464FF47A7502E028461F
:10278000FFF7EDFF641EFAD230BD00EBC000C100C0
:102790004FF0E02041610021816105210161016963
:1027A000C903FCD504210161704700002DE9F04107
:1027B00015460C46064601F0C3FDA02001F074FD4D
:1027C00001F02CFE68B9E0B201F06EFD01F026FECA
:1027D00038B901F0B5FDA12001F066FD01F01EFE43
:1027E00020B101F0E9FD0020BDE8F08100246F1E5A
:1027F0000CE000BF01F02CFD3055BC4202D001F0CE
:10280000D3FC01E001F0FCFC641CA4B2AC42F1D3A7
:1028100001F0D2FD0120E7E72DE9F0471746814698
:102820000C4600254FF47A782AE00DB1600717D1E5
:1028300001F0C2FD5FF0000601F082FDA02001F072
:1028400033FD01F0EBFD18B1761CB6B24645F3D36B
:1028500046450CD0E0B201F027FD01F0DFFD30B9B4
:1028600019F8050001F020FD01F0D8FD20B101F0BC
:10287000A3FD0020BDE8F087641C6D1CA4B2ADB2BE
:10288000BD42D2D301F098FD0120F3E710B54020FE
:1028900000F062FABDE81040802000F05DBA10B58B
:1028A000044649B101290AD0022904D100F00CF8EC
:1028B00000EB8000208010BD00F006F8FAE700F081
:1028C00003F84000F6E70000034908884042002270
:1028D00000B20A80704700003000002072B6FEE7A8
:1028E00070B501221E4CD5022946204600F02DFB72
:1028F0000F20FFF74AFF00222946204600F025FB63
:10290000A6143146204600F013FB0028F9D0154DDF
:102910000020C5E902003146204600F009FB0128ED
:10292000F9D0D5E9020104460E4664220023C5E928
:102930000401FDF79FFC263871F100000CD24FF422
:10294000AD71A4FB012306FB0131002004FB001044
:1029500040084FEA32002860288800B270BD0000AD
:102960000008014018000020012808D104484368ED
:102970000B6080684FF47A71B0FBF1F01060704723
:102980007000002070B5184D00241021284600F07A
:10299000CFFA48B90A20FFF7E2FE1021284600F0DE
:1029A000C7FA0028F6D001242021284600F0C0FAFA
:1029B00048B90A20FFF7D3FE2021284600F0B8FAD4
:1029C0000028F6D002244021284600F0B1FA48B988
:1029D0000A20FFF7C4FE4021284600F0A9FA00288B
:1029E000F6D00324204670BD0008014004488178D9
:1029F000012901D00020704700218170012070471B
:102A00007C00002010B590F821100022022905D08A
:102A10000421816380F82020012010BD01680B682B
:102A200023F00E030B6001680B6823F001030B60B9
:102A300090F84030C46B012101FA03F3636080F821
:102A4000211080F82020104610BD000010B590F82D
:102A500021100024022903D00421816301243DE0D8
:102A600001680A6822F00E020A6001680A6822F012
:102A700001020A601A4A0168914201D1012121E054
:102A8000174A1432914201D110211BE0144A283216
:102A9000914201D1891515E0114A3C32914201D190
:102AA00089140FE00E4A5032914202D14FF4803126
:102AB00008E00B4A6432914202D14FF4801101E0E8
:102AC0004FF08071064A083A5160012180F82110C8
:102AD000002180F82010416B01B18847204610BDCD
:102AE000080002402DE9F05FC16B0C6801680B68BB
:102AF000D0F840C0042202FA0CF2494DDFF824A1BC
:102B0000494E4A4FDFF828B1DFF828E122422CD0A5
:102B10005A072AD50A68920603D40A6822F00402EA
:102B20000A600168A94201D1042219E0514501D18E
:102B3000402215E0B14202D14FF4806210E0B94268
:102B400002D14FF480420BE0594502D14FF480226C
:102B500006E0714502D14FF4800201E04FF080623F
:102B60002F4908394A60C16A3BE04FF0020808FA71
:102B70000CF818EA040F4FF000094FF0010235D0AD
:102B80005FEA837832D50B689B0605D40B6823F087
:102B90000A030B6080F821200168A94201D10222BA
:102BA00019E0514501D1202215E0B14202D14FF484
:102BB000007210E0B94202D14FF400520BE05945C7
:102BC00002D14FF4003206E0714502D14FF40012F9
:102BD00001E04FF00072124908394A6080F82090F5
:102BE000816A00291AD0BDE8F05F0847082505FA78
:102BF0000CF5254212D01B0710D50B6823F00E03ED
:102C00000B6090F84010C36B02FA01F159608263C7
:102C100080F8212080F82090016BE2E7BDE8F09F6A
:102C2000080002401C000240300002404400024004
:102C3000580002406C00024030B528B308C8134960
:102C400014221944B1FBF2F18900C1631049816378
:102C5000022141771A6843F6F0718A43D0E90014E3
:102C60002143D0E902452C432143046921434469AF
:102C700021438469214311431960002141630122EA
:102C800042770177084630BD012030BDF8FFFDBF17
:102C90000000024070B5044690F82000002501288D
:102CA0000CD0012084F8200094F821600020012E2F
:102CB00006D084F820000225284670BD022070BD91
:102CC000022684F82160A0632068066826F00106C9
:102CD00006602046FFF764FAE06A00282068016871
:102CE00002D041F00E0106E021F0040101602068ED
:102CF000016841F00A0101602068016841F00101AA
:102D00000160D9E770B5124C124D802811D04028CF
:102D10000ED14021284600F00BF9002808D180216F
:102D2000284600F005F9002802D12088401C2080A8
:102D300070BD8021284600F0FBF80028F8D1402122
:102D4000284600F0F5F80028F2D12088401EEEE772
:102D500030000020000C0140044910B50A6802420E
:102D600002D00860FFF7CEFF10BD00001404014040
:102D70002DE9F84FDFF89C91002409F1040A0AF1CB
:102D8000040B23460F270BF1040EBBE00125A540E1
:102D90002A40AA4276D1DFF880C14E68A6EB0C0823
:102DA00066452BD00DDC032E34D005DC36B3012E66
:102DB00019D0022E2FD11BE0112E16D0122E2AD19F
:102DC00019E0B8F5881F19D006DCB8F5803F15D09A
:102DD000B8F5801F1FD111E0B8F5001F0ED0B8F56F
:102DE000041F18D10AE0CB6815E0CB681B1D12E068
:102DF000CB6808330FE0CB680C330CE08B682BB149
:102E0000012B4FF0080303D0456104E0042302E0E6
:102E1000056100E00023FF2A01D8064601E000F129
:102E200004064FEA840501D9A5F12005D6F80080F3
:102E300007FA05FC28EA0C0803FA05F548EA050834
:102E4000C6F800804D68ED005BD5344DAE6946F0A4
:102E50000106AE61AD6924F0030605F00105009599
:102E60002F4D06EB050CDCF80850A607360F07FAC5
:102E700006F825EA0805DFF8AC80404503D14FF09D
:102E8000000810E03DE0DFF8A080404502D14FF09F
:102E9000010808E0DFF89480404502D14FF00208B5
:102EA00001E04FF0030808FA06F848EA0508CCF8F4
:102EB00008804D68D9F80060ED034D4601D51643F2
:102EC00000E096432E604D68DAF80060AD03554689
:102ED00001D5164300E096432E604D68DBF8006094
:102EE000ED025D4601D5164300E096432E604D6825
:102EF000DEF80060AD02754601D5164300E096434A
:102F00002E60641C0A6832FA04F57FF43FAFBDE816
:102F1000F88F000000040140000011100010024072
:102F20000000014000080140000C01400010014079
:102F30008068084000D001207047C26821EA02037F
:102F40000A4043EA0241016170470AB101617047DA
:102F50000904FBE701488068704700000400002076
:102F600002488168027811448160704704000020A3
:102F7000074810B5016841F010010160032000F01E
:102F800075F80F2000F006F800F024F8002010BDBE
:102F90000020024070B50D4D04464FF47A71287838
:102FA000B1FBF0F00A490968B1FBF0F000F0ECFA6F
:102FB00048B9102C07D200222146501E00F036F8E6
:102FC00000206C6070BD012070BD00000400002076
:102FD000100000200C4808B5816941F001018161B1
:102FE000816901F001010091C16941F08051C16125
:102FF000C06900F0805000900448416821F0E06111
:1030000041F00071416008BD001002400000014025
:10301000002809DB00F01F020121914040098000D7
:1030200000F1E020C0F8001170470000F0B40E4B32
:103030001B680C46C3F30223C3F10705042D00D916
:103040000425191D072901D2002300E0DB1E0126FB
:1030500006FA05F1491E214099409E40761E164011
:103060003143F0BC02F06FBF0CED00E0064900F008
:10307000070208684FF6FF03184040EA0220034A9F
:1030800010430860704700000CED00E00000FA05F6
:103090002DE9F0470F46050061D0434E306800F03F
:1030A0000700B84209D2306820F00700384330608A
:1030B000306800F00700B84251D128683B4C8107C6
:1030C00012D5400703D5606840F4E060606028785E
:1030D000000703D5606840F4605060606068A968CC
:1030E00020F0F000084360602878C00728D06868A6
:1030F000012810D02168022810D0890700292EDA73
:10310000616821F0030101436160FFF723FF8046FE
:1031100041F288390DE021688903EFE78901EDE785
:10312000FFF718FFA0EB0801494502D90320BDE8CD
:10313000F0876068696800F00C00B0EB810FEFD198
:10314000306800F00700B8420BD9306820F0070063
:1031500038433060306800F00700B84201D00120E9
:10316000E5E72878400705D56068E96820F4E06065
:10317000084360602878000706D56068296920F454
:10318000605040EAC100606000F038F86168084AA9
:10319000C1F30311515CC840064908600648006845
:1031A000FFF7F8FE0020C2E70020024000100240B6
:1031B000167000081000002008000020044805498F
:1031C00000684968044AC1F30221515CC840704755
:1031D0001000002000100240267000080448054935
:1031E00000684968044AC1F3C221515CC840704775
:1031F00010000020001002402670000812A185B0C7
:103200000FC98DE80F0014A0144A0068049051689B
:10321000134801F00C03042B10D0082B0ED1C1F37E
:103220008343C9031DF803000AD5516804AAC1F3FA
:103230004041515C0A4A5043B0FBF1F005B0704781
:1032400008494843FAE70000020304050607080995
:103250000A0B0C0D0E0F10100102000000100240AE
:1032600000127A0000093D002DE9F84F040070D0EB
:103270002078C04DC00749D06868C0F3810001289C
:1032800007D06868C0F38100022809D16868C003CC
:1032900006D52868800339D560680028E7D035E076
:1032A0006068B0F5803F0BD010B1B0F5A02F11D001
:1032B000286820F480302860286820F4802002E00C
:1032C000286840F480302860606890B1FFF742FEC3
:1032D00006460AE0286840F480202860F0E700BF36
:1032E000FFF738FE801B642873D828688003F7D561
:1032F0000CE0FFF72FFE064605E000BFFFF72AFEB1
:10330000801B6428F0D828688003F7D420789A4E70
:1033100080074FF001094FF0000839D5686810F0B8
:103320000C0F07D06868C0F38100022809D16868D3
:10333000C00306D42868800714D52069012808D165
:1033400010E02069B0B1C6F80090FFF703FE074611
:1033500005E00AE1FFF7FEFDC01B0228C4D828687B
:103360008007F7D52868616920F0F80040EAC100BD
:1033700028600DE0C6F80080FFF7ECFD074604E08A
:10338000FFF7E8FDC01B022823D828688007F7D480
:10339000207800072CD57948A169D9B1C0F80090F0
:1033A000FFF7D8FD074604E0FFF7D4FDC01B022855
:1033B0000FD8686A8007F7D571484FF4FA51006852
:1033C000B0FBF1F0009000BF0098411E0091FAD2CE
:1033D0000EE080E0C0F80080FFF7BCFD074604E087
:1033E000FFF7B8FDC01B022875D8686A8007F7D4BC
:1033F0002078400760D5E8690027C00008D4E86954
:1034000040F08050E861E869012700F080500090AA
:103410005C480168C90513D40168834641F4807192
:103420000160FFF797FD824606E000BFFFF792FDBF
:10343000A0EB0A0064284ED8DBF80000C005F5D5E3
:10344000E06801280AD008B1052813D0286A20F0C6
:1034500001002862286A20F0040002E0286A40F097
:1034600001002862E06841F2883B98B1FFF772FDE5
:1034700082460BE0286A40F004002862EEE700BFB5
:10348000FFF768FDA0EB0A0159455AD8286A800762
:10349000F6D50CE0FFF75EFD824605E0FFF75AFD2A
:1034A000A0EB0A0159454CD8286A8007F6D41FB111
:1034B000E86920F08050E861E06988B36968C1F389
:1034C0008101022944D00228C6F8608004D0FFF7A9
:1034D00041FD044638E034E0FFF73CFD074604E0D8
:1034E000FFF738FDC01B02282BD828688001F7D4CD
:1034F000206AB0F5803F05D16868A16820F40030EB
:1035000008436860D4E908010843696821F474112C
:1035100008436860C6F86090FFF71CFD044606E0AB
:1035200025E000BFFFF716FD001B022809D8286818
:103530008001F7D51BE000BFFFF70CFD001B022840
:1035400002D90320BDE8F88F28688001F4D40EE08A
:103550000128F7D06868226A00F48031914204D1D2
:10356000616A00F47010884201D00120EAE700206F
:10357000E8E700000010024000004242800442429E
:10358000100000200070004010B5401EB0F1807F98
:1035900001D3012010BD4FF0E02460610F216017BE
:1035A00002F0D1FC0020A06107202061002010BDA6
:1035B0007047704770B590F83C20012A23D0012451
:1035C00080F83C40022280F83D2003685A689D68DC
:1035D00022F070060A6832435A600C4B02689A4225
:1035E00005D0B2F1804F02D0094B9A4204D149680C
:1035F00025F080031943916080F83D40002180F858
:103600003C10084670BD022070BD0000002C014037
:103610000004004010B5040003D094F83D0010B140
:1036200007E0012010BD002084F83C00204600F097
:103630001FF8022084F83D00211D206801F050FE93
:10364000012084F8460084F83E0084F83F0084F8A6
:10365000400084F8410084F8420084F8430084F874
:10366000440084F8450084F83D00002010BD0000AF
:1036700010B586B00021009101910291039101687B
:103680001F48B1F1804F15D01E4A914210D1C16937
:1036900041F00201C161C069002200F00200049003
:1036A00011461D20FFF7C2FC5FF01D00FFF7B0FCC4
:1036B00006B010BDC16941F00101C161C16901F0ED
:1036C00001010491816941F00401816180690E4C1E
:1036D00000F0040004900120009069462046FFF7A6
:1036E00047FB022100910191039169462046FFF7B3
:1036F0003FFB002211461C20FFF798FC1C20D5E759
:1037000000100240000400400008014090F83D1005
:10371000012901D001207047022180F83D10016885
:10372000CA6842F00102CA6000680A49884205D0AE
:10373000B0F1804F02D00849884204D1816801F07D
:103740000701062903D0016841F001010160002052
:1037500070470000002C01400004004070B5044692
:1037600090F83C00012817D0012584F83C50022035
:1037700084F83D002068826822F0770222F47F42BC
:1037800082600868502830D00DDC20284DD005DC40
:1037900098B310283BD148E0022070BD302844D0B7
:1037A000402834D139E0602828D0702806D0B0F500
:1037B000805F2CD0B0F5005F29D10AE0CB68D1E959
:1037C0000121206801F0C7FD2068816841F0770180
:1037D00009E0CB68D1E90121206801F0BCFD206837
:1037E000816841F48041816011E0CA6849682068BD
:1037F00001F0C3FD5021206807E016E0CA6849685F
:10380000206801F0F3FD6021206801F0AEFD84F82E
:103810003D50002084F83C0070BDCA6849682068AB
:1038200001F0ABFD40212068EFE722680146104619
:10383000EBE7000070B50168B1F1804F47D1027F1E
:10384000012A44D1224E234C327804F11005AAB14A
:10385000012A3CD1496BA1600068806BA8600021FF
:103860001D4800F023F9A168206881420ED9A1EB20
:103870000001E160A968A1EB000014E0496B216040
:103880000068806B28604FF001001FE00DD24FF6FA
:10389000FF71A1EB0000626800F1010002EB000182
:1038A000E16069680844E86001E0FFF717F8FFF796
:1038B00095FCE1686422B0FBF1F0B060E868504329
:1038C000B0FBF1F003F0A0F970600020307070BD23
:1038D0007000002058020020DC0000202DE9F0419B
:1038E000054690F83C000C46012836D0012085F8AA
:1038F0003C008AB3042A42D02868082A51D0D4E96F
:103900000023E168066A26F480560662C669076AE3
:1039100026F4407646EA03234FF6FF7606EA0131A5
:1039200023F4704319434FF4005627F4005306EA7A
:1039300002321A43C16102622868C16921F4406100
:10394000C1612868C169A26841EA0221C161002001
:1039500085F83C00BDE8F08101E00220FAE7D4E9F7
:103960000012E368286801F019FD2868816921F0D8
:103970000C01816128688169A26811430FE0D4E9D4
:103980000012E368286801F043FD2868816921F48A
:103990004061816128688169A26841EA02218161F0
:1039A000D5E7D4E90027267B016A21F48071016202
:1039B000C169036A21F00301394321F0F00731079F
:1039C0004FF4007647EA116123F4007306EA0222FD
:1039D0001A43C16102622868C16921F00C01C1610A
:1039E0002868C169A2681143B0E710B5040003D08C
:1039F00094F83D0010B107E0012010BD002084F8CC
:103A00003C00204600F01EF8022084F83D00211DF5
:103A1000206801F065FC012084F8460084F83E002F
:103A200084F83F0084F8400084F8410084F84200A4
:103A300084F8430084F8440084F8450084F83D008D
:103A4000002010BD00B585B00021009101910291C8
:103A500003910068124988421FD11248816941F4DC
:103A600000618161816901F400610491816941F023
:103A7000040181618069694600F0040004904FF4FC
:103A8000807000900848FFF773F9002211461B2050
:103A9000FFF7CCFA1B20FFF7BBFA05B000BD000012
:103AA000002C0140001002400008014010B50446FF
:103AB00051B104290DD0082910D094F8410094F890
:103AC0004520012811D10EE094F83E0094F84220E0
:103AD000F7E794F83F0094F84320F2E794F84000A9
:103AE00094F84420EDE7012A01D0012010BD022006
:103AF00051B1042911D0082918D084F8410084F864
:103B000045000C291BD133E084F83E0084F84200C4
:103B10002068C26842F0020210E084F83F0084F896
:103B200043002068C26842F0040207E084F84000C5
:103B300084F844002068C26842F00802C260012292
:103B4000206801F0FBFB0D492068884205D0B0F1E8
:103B5000804F02D00A49884204D1816801F00701F0
:103B6000062903D0016841F001010160002010BD69
:103B70002068C26842F01002E0E70000002C01401B
:103B80000004004070B50446006801694FF000056C
:103B9000C943890715D4C168C943890711D4E91EEF
:103BA000016101202077206880698007204602D0CB
:103BB000FFF740FE04E000F098F8204600F096F889
:103BC000257720680169C943490717D4C168C943EB
:103BD000490713D46FF004010161022020772068A7
:103BE000806910F4407F204602D0FFF723FE04E0F6
:103BF00000F07BF8204600F079F82577206801690D
:103C0000C943090716D4C168C943090712D46FF024
:103C100008010161042020772068C06980072046E0
:103C200002D0FFF707FE04E000F05FF8204600F046
:103C30005DF8257720680169C943C90617D4C168B2
:103C4000C943C90613D46FF0100101610820207721
:103C50002068C06910F4407F204602D0FFF7EAFDDB
:103C600004E000F042F8204600F040F82577206894
:103C70000169C943C90708D1C168C943C90704D14B
:103C8000891E0161204600F033F820680169C943AC
:103C9000090609D4C168C943090605D46FF080013B
:103CA00001612046FFF784FC20680169C943490689
:103CB00009D4C168C943490605D46FF040010161C8
:103CC000204600F025F820680169C94389060BD415
:103CD000C168C943890607D46FF0200101612046FD
:103CE000BDE87040FFF765BC70BD704770470000CD
:103CF0000549884207D10548D0E90212491C42F122
:103D00000002C0E9021270472401002018000020C0
:103D10007047704710B504460068416994F83D202B
:103D2000C1F3C011212A0BD151B1416921F08001A9
:103D30004161606B08B1FEF765FE204601F01FFF90
:103D40002068416994F83E20C1F38011222A0BD1EA
:103D500051B1416921F040014161A06B08B1FEF70A
:103D600051FE204601F0F3FE002010BD7047000018
:103D7000F8B5026804461068D168536910F00F0F57
:103D80004FF0000553D003F0010601F4907737435C
:103D90005FD0C20705D0CA0503D5226C42F00102EC
:103DA0002264420705D5DA0703D0226C42F00202F2
:103DB0002264820705D5DA0703D0226C42F00402A0
:103DC0002264020707D501F02002324303D0226C9F
:103DD00042F008022264226C002A34D0800604D506
:103DE000880602D5204601F0D3FE20684069216C88
:103DF000C0F38010090700D430B3204601F0A7FEBD
:103E00002068416949061BD5416921F040014161A3
:103E1000A06BA8B158494163A06BFEF717FE0028BC
:103E200011D0A06B416B01B0BDE8F040084783069C
:103E30000FD58B060DD52046BDE8F84001F0A8BE91
:103E40002046FFF793FFF8BD2046FFF78FFF25645C
:103E5000F8BD266B2023012E52D1C60650D5CE06C2
:103E60004ED5106850680090506940062AD5A16B65
:103E7000086840680004000CEAD0A68D8642E7D9A5
:103E8000E0858869202818D0D06820F48070D06040
:103E90002068416921F0010141612068416921F0F8
:103EA0004001416184F83E3025632068C16821F0FB
:103EB0001001C160A06BFEF7A5FDA08DE18D401A39
:103EC00081B219E0A08DE18D401A81B2E08D002809
:103ED000BED00029BCD0D06820F49070D06020689B
:103EE000426922F00102426184F83E302563206875
:103EF000C26822F01002C2602046FFF70AFFF8BD38
:103F000005062BD50D0629D594F83D002128F6D1BC
:103F1000A068B0F5805F01D12069B0B1206A411C72
:103F20002162216800784860E08C401E0004000C8B
:103F3000E084E4D12068C16821F08001C16020687C
:103F4000C16841F04001C160F8BD206A0088C0F33B
:103F500008005060206A801C2062E5E74006F3D527
:103F60004806F1D5D168204621F04001D16084F89F
:103F70003D3000F001F9F8BD495A000870B5040061
:103F800004D094F83D00002510B106E0012070BD7A
:103F900084F83C50204600F023F8242084F83D00AB
:103FA0002068C16821F40051C160204601F04CFE38
:103FB0002068016921F4904101612068416921F084
:103FC0002A0141612068C16841F40051C160256443
:103FD000202084F83D0084F83E00002070BD0000E1
:103FE0002DE9F04186B00024064600940194029425
:103FF000039400682F49884258D12F48816941F4C1
:1040000080418161816901F480410491816941F0BD
:10401000040181618069294D00F0040004904FF48F
:10402000007000900220019003200390694628460A
:10403000FEF79EFE2815CDE9000469462846029445
:10404000FEF796FE1F4D1E484FF08008C5E900049C
:10405000C5E902482C614FF400576C61C5E9064779
:104060002846FEF7E9FD08B1FEF738FCB5636E623D
:10407000144D13484435143801C51020A5E811012A
:10408000104845F8104944306C61C5E90647FEF711
:10409000D3FD08B1FEF722FC7563002211462520EE
:1040A0006E62FEF7C3FF2520FEF7B2FF06B0BDE843
:1040B000F08100000038014000100240000801407B
:1040C00058000240B001002090F83E30202B0ED165
:1040D00059B152B190F83C30012B08D0012380F83F
:1040E0003C300023036301F00BBE01207047022027
:1040F000704770477047000070B5044690F83D0067
:10410000202830D169B362B394F83C0001282AD04A
:10411000012084F83C002162A284E2840025256409
:10412000212084F83D00636B10489862636B10484F
:10413000D862636B0F481863606B1346456326684B
:10414000606B321DFEF7A6FD21686FF0400008602D
:1041500084F83C502068416941F0800141610020B1
:1041600070BD012070BD022070BD0000175B00080B
:10417000455B0008595A00087047704710B507485A
:10418000FFF7C4FA00224FF400610548FEF7DDFE98
:10419000BDE810400F20FEF7F8BA0000240100200F
:1041A00000080140FEE7000070B5114D4FF4805447
:1041B000002221462846FEF7C8FE0220FEF7E5FA57
:1041C0000122560331462846FEF7BFFE0220FEF7C5
:1041D000DCFA002231462846FEF7B7FE0220FEF741
:1041E000D4FA21462846BDE870400122FEF7ADBE54
:1041F000000C01402A2000BF401EFCD27047000086
:1042000070B50E4C012211032046FEF79EFE0220DF
:10421000FEF7BBFA0122550329462046FEF795FE1C
:104220000220FEF7B2FA002229462046FEF78DFE54
:10423000BDE870400220FEF7A8BA0000000C014063
:104240004FF480710148FEF773BE0000000C01407E
:104250002DE9F0410024134E25464FF480584FF4C9
:1042600000576006040E012239463046FEF76DFE07
:104270000220FEF78AFA41463046FEF759FE08B1A1
:10428000641CE4B2002239463046FEF75EFE02208E
:10429000FEF77BFA6D1CEDB2082DE2D32046BDE897
:1042A000F0810000000C01402DE9F041184E054658
:1042B00000244FF400574FF48058280601D50122FE
:1042C00000E0002241463046FEF73FFE0220FEF7A6
:1042D0005CFA012239463046FEF737FE0220FEF72F
:1042E00054FA002239463046FEF72FFE072C04D13F
:1042F000012241463046FEF728FE6806050E0220E0
:10430000FEF743FA641CE4B2082CD6D3BDE8F08172
:10431000000C014010B5012000F074F8012000F0FD
:1043200065F8FFF767FF002000F06CF8FFF762FF09
:10433000002000F05BF8BDE81040FFF75BBF000015
:1043400070B50122104D140321462846FEF7FDFDED
:104350000122560331462846FEF7F7FD0220FEF7FC
:1043600014FA002221462846FEF7EFFD0220FEF750
:104370000CFA002231462846FEF7E7FDBDE8704002
:104380000220FEF702BA0000000C014010B5002028
:1043900000F038F8002000F029F8FFF72BFF01208B
:1043A00000F024F8FFF726FF012000F02BF8BDE80D
:1043B0001040FFF71FBF000070B50B4D4FF4805445
:1043C000002221462846FEF7C0FD0122510328465F
:1043D000FEF7BBFD0220FEF7D8F921462846BDE8CE
:1043E00070400122FEF7B1BD000C0140044B4FF4B8
:1043F000007118B101221846FEF7A7BD0022FAE7A6
:10440000000C0140044B4FF4807118B10122184692
:10441000FEF79BBD0022FAE7000C014070B50122B7
:10442000114D140321462846FEF78FFD0220FEF7AA
:10443000ACF90122560331462846FEF786FD0220DC
:10444000FEF7A3F921462846FEF772FD08B10124C4
:1044500000E00024002231462846FEF776FD0220C7
:10446000FEF793F9204670BD000C014010B5002402
:104470000120FFF7C7FF0120FFF7B8FF07E0641C2A
:10448000E4B2FA2C03D9FFF781FF012010BDFFF73A
:10449000D7FE0028F3D1FFF7A9FFFFF7ABFE0020FE
:1044A00010BD000010B500210448FFF7FFFABDE879
:1044B000104004210148FFF7F9BA0000DC00002099
:1044C0003EB504460078012806D002283DD00328D6
:1044D0007ED0042838D1B8E000F00FFB20236FA273
:1044E0000021242000F004FC10236EA202212820C9
:1044F00000F0FEFB10236CA20221482000F0F8FB24
:1045000010236AA20221682000F0F2FB102368A2A7
:1045100004211D2000F0ECFB102366A204213D20A5
:1045200000F0E6FB102364A204215F2000F0E0FB12
:10453000022362A206212A2000F0DAFB022360A2F5
:104540000621662000F0D4FBA5E000F0D6FA062292
:1045500000215C48FEF72AF96420FEF700F959486B
:1045600006220821801DFEF721F95649C8784B79AB
:104570000A798DE80D008B784A78097852A000F00E
:10458000A3FAC820FEF7EBF84E48801D4379027964
:10459000C1785DA000F098FA202366A200213020A7
:1045A00000F0A6FB474800F087FD022363A2062126
:1045B000002000F09DFB102362A206211E2000F0C7
:1045C00055FC10235FA20621382000F04FFC00E0CC
:1045D0000AE010235BA20621502000F047FC394876
:1045E000801D00F02FFD56E000F087FA202356A230
:1045F0000021302000F07CFB022355A21946002048
:1046000000F076FB022352A20421002000F070FB90
:1046100010234CA20221282000F028FC102349A2DC
:104620000421282000F022FC10234BA202216E203E
:1046300000F01CFC102349A204216E2000F016FC9F
:104640001023062146A2282023E000F056FA20235A
:1046500045A20021302000F04BFB102344A2022190
:10466000202000F003FC102343A202215C2000F074
:10467000FDFB062342A20521382000F0F7FB0623AC
:1046800040A20521682000F0F1FB10233EA2062184
:10469000002000F0EBFB002020703EBDD6F7BDE708
:1046A000C3E60000C4EA0000D4C20000C8D5000080
:1046B000CAB10000B7D60000C3EB0000A1E60000BD
:1046C000A848000064000020454550524F4D20B6D8
:1046D000C1C8A1C9E8B6A8CAB1BCE4A3BA323025A2
:1046E000303264C4EA25303264D4C225303264C822
:1046F000D525303264CAB125303264B7D625303280
:1047000064C3EB0D0A000000454550524F4D20B6E2
:10471000C1C8A1C4D6C1E5CAB1BCE4A3BA25303230
:1047200064CAB125303264B7D625303264C3EB0D8C
:104730000A000000C9E8CAB100000000C4D6C1E503
:10474000000000003A000000B2E2BEE000000000FD
:10475000B5A5CEBB00000000434D00004D00000099
:104760003E55534152543C00B2B6BBF1000000002C
:104770004475747900000000467265710000000005
:10478000250000004B487A0054656D705365743AFB
:10479000000000004FF480610148FEF7CEBB00002E
:1047A000000C01400D4808B5416941F0010141612B
:1047B0004069002200F00100009011460E20FEF733
:1047C00035FC0E20FEF724FC002211460F20FEF7D8
:1047D0002DFCBDE808400F20FEF71ABC0010024077
:1047E0002DE9F04186B000243E48009401940294E3
:1047F0000394816941F010018161816901F0100128
:104800000491816941F020018161816901F02001F9
:104810000491816941F004018161816901F0040121
:104820000491816941F00801816180692E4F00F097
:10483000080048F608050490002229463846FEF78D
:1048400084FBDFF8A88001224FF440614046FEF768
:104850007CFB002243F238314046FEF776FB0095A0
:10486000022601250396CDE9015469463846FEF734
:104870007FFA70208DE8310069463846FEF778FAF5
:1048800040F63870CDE90005CDE90246694640465C
:10489000FEF76EFA4FF44050009001AA112082E812
:1048A000510069464046FEF763FA2803CDE900044B
:1048B000694638460294FEF75BFAC02000900C4827
:1048C000CDE9010569464046FEF752FA002211463D
:1048D0001720FEF7ABFB1720FEF79AFB06B0BDE8EA
:1048E000F08100000010024000080140000C01406F
:1048F0000000211010B586B000241F4805940494D0
:104900000094019402941B490394016040F2CF216A
:10491000C0E901144FF6FF71C0E9031444618461DA
:10492000FFF763F808B1FDF7D9FF049404A9124812
:104930000594FEF73FFE08B1FDF7D0FF0120CDE959
:1049400000400294002269460B480394FEF7C6FF1C
:1049500008B1FDF7C3FF02200090019004226946D0
:104960000548FEF7BBFF002801D0FDF7B7FF06B0F2
:1049700010BD0000002C01409400002010B58AB04A
:1049800000242748049405940694079408940994F5
:104990000094019402944FF080410394C0E9001404
:1049A0004FF6FF71C0E9024104618461FEF732FEF7
:1049B00008B1FDF793FF4FF48050049004A9184804
:1049C000FEF7CCFE08B1FDF789FF1548FFF70DF89B
:1049D00008B1FDF783FF089408A911480994FEF770
:1049E000E9FD08B1FDF77AFF0120CDE9004002940E
:1049F000002269460A480394FEF770FF08B1FDF7EC
:104A00006DFF022000900190042269460448FEF7E1
:104A100065FF002801D0FDF761FF0AB010BD00005E
:104A2000DC00002010B586B00024174800940194E3
:104A30000294039404941349059401600921C0E988
:104A400001144721C0E9031480218161FEF7E2FDD2
:104A500008B1FDF743FF4FF48050009069460A48C3
:104A6000FEF77CFE08B1FDF739FF049404A906485F
:104A70000594FEF79FFD002801D0FDF72FFF06B03B
:104A800010BD000000040040240100200C4810B5B7
:104A90000A4901604FF416514160002181600C22E7
:104AA000C160C0E904128161C161FFF767FA0028A3
:104AB00003D0BDE81040FDF711BF10BD0038014024
:104AC0006C010020FEE700000FB410B501F0A8F95A
:104AD00003AB40F201210748029AFBF743FC05486B
:104AE000FBF75AFC81B20348FDF770FB10BC5DF880
:104AF00014FB000078020020FEE770B50024214678
:104B0000002000F07FF800250121002000F066FA67
:104B10006D1CEDB2802DF7D3641CE4B2082CEED3EB
:104B200070BD10B50021AE2000F058FA00210846F3
:104B300000F054FA0021102000F050FA002140202B
:104B400000F04CFA0021B02000F048FA002181204A
:104B500000F044FA0021FF2000F040FA0021A120DB
:104B600000F03CFA0021C82000F038FA0021A6200D
:104B700000F034FA0021A82000F030FA00213F2094
:104B800000F02CFA0021D32000F028FA002108467A
:104B900000F024FA0021D52000F020FA0021802026
:104BA00000F01CFA0021D82000F018FA002105209E
:104BB00000F014FA0021D92000F010FA0021F120B1
:104BC00000F00CFA0021DA2000F008FA002112208F
:104BD00000F004FA0021DB2000F000FA0021302070
:104BE00000F0FCF900218D2000F0F8F900211420DC
:104BF00000F0F4F90021AF2000F0F0F9BDE810401A
:104C0000FFF77BBF10B50446B031C8B2002100F0F9
:104C1000E5F9102040EA1410002100F0DFF904F05B
:104C20000F00BDE81040002100F0D8B92DE9F04197
:104C3000203A00244F1C2C4D8046D6B2102B24D095
:104C4000062B41D0FFF7DEFF04EB06100121285CA4
:104C5000C043C0B200F0C2F9641CE4B2082CF3D324
:104C6000F9B24046FFF7CEFF5FF0000404EB0610F8
:104C700028440121007AC043C0B200F0AFF9641C9F
:104C8000E4B2082CF2D3BDE8F081FFF7BBFF00BF10
:104C900004EB06100121285C00F0A0F9641CE4B2CA
:104CA000082CF5D3F9B24046FFF7ACFF5FF00004E3
:104CB00004EB061028440121007A00F08FF9641CEF
:104CC000E4B2082CF4D3DEE7FFF79CFF074906EBBC
:104CD000460001EB40050121285D00F07FF9641CCE
:104CE000E4B2062CF7D3CEE7507200082E7000080D
:104CF0002DE9F843984617460E460546002414E071
:104D00008DF800003819434640788DF801006A4656
:104D10003146284600F0C6F81035EDB2782D02D99C
:104D20000025B61CF6B2A41CE4B2385D0028E7D119
:104D3000BDE8F8832DE9F84F06461D4692468B469E
:104D400010460A9F01F00CFF81460A24B5FBF4F0DF
:104D500004FB10512046491C01F0FCF901F054FFFE
:104D60008046484601F038FF514602F061F841465E
:104D700001F092FF01F0F4FE8046102F23D0062FA1
:104D80001FD1B5FBF4F3B61DF0B24A465946009761
:104D900000F03AF8B5FBF4F03044C0B23B462E22A6
:104DA0005946FFF743FFB5FBF4F004FB1053B5FB86
:104DB000F4F03044401DC0B242465946009700F01E
:104DC00023F8BDE8F88FB5FBF4F306F10800C0B294
:104DD0004A465946009700F017F8B5FBF4F04FF03B
:104DE0000809401C09FB0060C0B23B462E22594610
:104DF000FFF71CFFB5FBF4F004FB1053B5FBF4F018
:104E0000801C09FB0060D6E72DE9F0471F4690465D
:104E1000894606460024089D1DE0381B401EC1B28D
:104E20000A2001F097F9B8FBF0F00A21B0FBF1F28B
:104E300001FB1200102D12D000F13000062DC2B27D
:104E400011D0680800FB0460C0B22B464946FFF74A
:104E5000EDFE641CE4B2BC42DFD3BDE8F087303025
:104E6000C2B20820EEE705FB0460EDE72DE9F04152
:104E7000984617460E46044600250DE04346314647
:104E80002046FFF7D3FE0834E4B2782C02D9002480
:104E9000B61CF6B26D1CEDB27A5D002AEED1BDE80B
:104EA000F08100002DE9FF5F1E4690460D460098F8
:104EB000FFF7A8FEDFF81CA100240AF5087B05F126
:104EC0000109102E04D0202E2BD0022E52D07AE0D1
:104ED00004EB041198F800201AF81130934272D1B3
:104EE0000AEB410798F80100797881426BD10025DF
:104EF00078190121807800F071F86D1CEDB2102D49
:104F0000F6D309F0FF010098FFF77CFE1025781911
:104F10000121807800F062F86D1CEDB2202DF6D3EF
:104F200051E004EB041298F800001BF812308342A1
:104F300049D10BEB420798F801007978814242D1C0
:104F4000002578190121807800F048F86D1CEDB239
:104F5000102DF6D309F0FF010098FFF753FE10253E
:104F600078190121807800F039F86D1CEDB2202D00
:104F7000F6D328E0184804EB041198F8002010F844
:104F8000113093421FD100EB410798F80100797866
:104F9000814218D1002578190121807800F01EF88F
:104FA0006D1CEDB2102DF6D309F0FF010098FFF74C
:104FB00029FE102578190121807800F00FF86D1C6A
:104FC000EDB2202DF6D3641CE4B20A2CFFF479AFC5
:104FD000BDE8FF9F4078000894790008012901D0BE
:104FE00000F002B800F017B810B50446FFF792F9C8
:104FF000782000F079FFFFF739FA002000F074FF05
:10500000FFF734FA204600F06FFFFFF72FFABDE8F4
:105010001040FFF7BBB910B50446FFF77BF97820C5
:1050200000F062FFFFF722FA402000F05DFFFFF77B
:105030001DFA204600F058FFFFF718FABDE81040AF
:10504000FFF7A4B970B50446FDF716FAE1780A2017
:10505000B1FBF0F2174930320A70E278B2FBF0F39C
:1050600000FB132230324A703A238B702279B2FB54
:10507000F0F23032CA702279B2FBF0F500FB152253
:1050800030320A714B716279B2FBF0F230328A71C0
:105090006279B2FBF0F300FB13203030C8710020BE
:1050A0000872BDE870400A46102306212820FFF749
:1050B000DDBE00004C02002070B50446FDF7DCF9AF
:1050C0003349322008703020487062790A20B2FBE0
:1050D000F0F230328A706279B2FBF0F300FB1322F7
:1050E0003032CA702D230B712279B2FBF0F23032CC
:1050F0004A712279B2FBF0F500FB152230328A7139
:10510000CB71E278B2FBF0F230320A72E278B2FB95
:10511000F0F300FB132230324A7200228A72A17827
:10512000B1FBF0F31A4930330B310B70A378B3FBAA
:10513000F0F500FB153330334B703A258D706378F2
:10514000B3FBF0F33033CB706378B3FBF0F600FBC6
:10515000163330330B714D712378B3FBF0F33033DA
:105160008B712378B3FBF0F400FB14303030C8713E
:105170000A721023064A02211820FFF777FE044A1C
:10518000BDE8704010230B3204212020FFF76EBED3
:10519000380200207047704710B5FDF7A1FB01F001
:1051A0003FFA0022034B01F0E3F8BDE8104001F0A4
:1051B00005B8000000408F4010B5FDF791FB01F0ED
:1051C0002FFA0022034B01F0D3F8BDE8104000F0A5
:1051D000F5BF0000006AF840F8B5B0F9000001F032
:1051E0001FFA0D4A0D4B01F033FA0D4D06460C46E1
:1051F000A86801F015FC3246234601F011F800F0D2
:10520000DDFFA860102102460091162306214020F0
:10521000FFF790FDF8BD00009A9999999999B93FC7
:105220004C00002030B50A490A4C00206FF02F03D3
:1052300001EB8002D5799279303A02EB820203EBDE
:1052400042022A442254401C0628F1D330BD0000FB
:10525000780400208C000020FDF782BE30B58FB0AE
:1052600028216846FBF7D9F814210AA8FBF7D5F8DE
:1052700001210804CDE900100024029402250491C4
:10528000CDE907504FF4E01009906846FDF7ECFFB8
:1052900008B172B6FEE70F20CDE90A054FF4806031
:1052A000CDE90C4002210AA80E94FDF7F1FE00287A
:1052B00001D072B6FEE70FB030BD70470148FEF76F
:1052C00061BC0000940000200148FEF75BBC0000B8
:1052D000DC0000200148FEF755BC0000240100203E
:1052E00070B50268134B144C4FF08046984203D0BF
:1052F000B04201D0A04203D122F070054A682A438F
:10530000984203D0B04201D0A04203D122F44074AD
:10531000CA6822434C6922F08002224302608A68F4
:10532000C2620A688262984201D10969016301215F
:10533000416170BD002C01400004004010B501F037
:105340001F030121046A99408C430462016A9A4058
:105350001143016210BD10B5846842EA032224F4AF
:105360007F440A432243826010BD826822F07002AB
:105370000A4342F007018160704710B5036A046A6E
:1053800024F001040462846924F0F00444EA021465
:1053900023F00A020A438461026210BD70B5046AF8
:1053A00024F0010404628469056A0E4EB04205D0FF
:1053B000B0F1804F02D00C4EB04203D124F0030470
:1053C000144301E044F001041A0724F0F00444EA15
:1053D000126225F00A0301F00A0119438261016299
:1053E00070BD0000002C01400004004010B5036AAD
:1053F00023F0100303628369046A23F4704343EAD1
:10540000023224F0A00343EA01118261016210BD5F
:1054100030B5046A24F0100404628469056A24F437
:10542000407444EA022222F470444FF6FF7202EA0A
:1054300003322243A02425F0A00304EA01111943FA
:105440008261016230BD01780023632900D90370B5
:10545000417801220C2901D9427018E0012916D0A7
:10546000032914D0052912D0072910D008290ED0FD
:105470000A290CD00C290AD004290CD006290AD0FC
:10548000092908D00B2906D0022908D00EE081781E
:105490001F290AD80AE081781E2906D806E001787B
:1054A000890781780FD01C2900D98270C17817290B
:1054B00000D9C37001793B2900D9037141793B2997
:1054C00000D9437170471D29EFD8EFE713B507499D
:1054D0009DF8042000788B5C184488540846FFF738
:1054E000B2FF01A800F01AF81CBD00006400002003
:1054F00010B5FCF783FF00210623064A0846FFF794
:10550000B5FC06230021BDE81040034A5820FFF7F0
:10551000ADBC0000380000203E0000202DE9F8431B
:10552000DFF8108500780F2798F80020102408F184
:105530000605A5F11E0602F5FA620C2875D2DFE811
:1055400000F0060E4C5C7595BDF2F0EFEEED042315
:10555000022118200097FFF757FC009406E004236F
:10556000022118200094FFF74FFC0097022398F8BF
:10557000012019464020FFF747FC0094022398F8C9
:10558000022019465820FFF73FFC009498F80320AA
:10559000022304212020FFF737FC009498F8042010
:1055A000022304213820FFF72FFC009498F80520EF
:1055B000022304215020FFF727FC0094EA780223FD
:1055C00006212820FFF720FC00942A7902230621D7
:1055D0004020FFF719FC009419E104230221182050
:1055E0000094FFF711FC0094022398F8012019465B
:1055F0004020FFF709FC0097C0E704230221182090
:105600000094FFF701FC0094022398F8012019464A
:105610004020FFF7F9FB0094022398F80220194676
:105620005820FFF7F1FB0097B0E701E204230221C5
:1056300018200094FFF7E8FB0094022398F801205B
:1056400019464020FFF7E0FB0094022398F802205F
:1056500019465820FFF7D8FB009498F8032002233E
:1056600004212020FFF7D0FB009797E704230221B5
:1056700018200094FFF7C8FB0094022398F801203B
:1056800019464020FFF7C0FB0094022398F802203F
:1056900019465820FFF7B8FB009498F8032002231E
:1056A00004212020FFF7B0FB009498F80420022387
:1056B00004213820FFF7A8FB009777E70423022195
:1056C00018200094FFF7A0FB0094022398F8012013
:1056D00019464020FFF798FB0094022398F8022017
:1056E00019465820FFF790FB009498F803200223F6
:1056F00004212020FFF788FB009498F8042002235F
:1057000004213820FFF780FB009498F8052002233D
:1057100004215020FFF778FB00974FE72AE1D2E001
:1057200087E037E0FFE70423022118200094FFF709
:105730006BFB0094022398F8012019464020FFF7E4
:1057400063FB0094022398F8022019465820FFF7C3
:105750005BFB009498F80320022304212020FFF72C
:1057600053FB009498F80420022304213820FFF70B
:105770004BFB009498F80520022304215020FFF7EA
:1057800043FB0094EA78022306212820FFF73CFB24
:1057900000971AE70423022118200094FFF734FB36
:1057A0000094022398F8012019464020FFF72CFBB3
:1057B0000094022398F8022019465820FFF724FB92
:1057C000009498F80320022304212020FFF71CFBFB
:1057D000009498F80420022304213820FFF714FBDA
:1057E000009498F80520022304215020FFF70CFBB9
:1057F0000094EA78022306212820FFF705FB009495
:105800002A79022306214020FFF7FEFA00976A79E1
:10581000022306215620FFF7F7FA30784FF01003E5
:1058200001284ED084A206216C20FFF71FFB102315
:10583000EEE00423022118200094FFF7E5FA00941B
:10584000022398F8012019464020FFF7DDFA009462
:10585000022398F8022019465820FFF7D5FA009441
:1058600098F80320022304212020FFF7CDFA0094AA
:1058700098F80420022304213820FFF7C5FA009489
:1058800098F80520022304215020FFF7BDFA009468
:10589000EA78022306212820FFF7B6FA00942A7935
:1058A000022306214020FFF7AFFA00946A79022311
:1058B00006215620FFF7A8FA30784FF00F03012891
:1058C000B0D15EA2AFE70423022118200094FFF7B5
:1058D0009BFA0094022398F8012019464020FFF714
:1058E00093FA0094022398F8022019465820FFF7F3
:1058F0008BFA009498F80320022304212020FFF75C
:1059000083FA009498F80420022304213820FFF73A
:105910007BFA009498F80520022304215020FFF719
:1059200073FA0094EA78022306212820FFF76CFA24
:1059300000942A79022306214020FFF765FA00949B
:105940006A79022306215620FFF75EFA30784FF07D
:10595000100301280CD038A206216C20FFF786FA2C
:10596000102337A202216C20FFF780FA0F2355E0A5
:1059700032A2F1E70423022118200094FFF744FA31
:105980000094022398F8012019464020FFF73CFAC2
:105990000094022398F8022019465820FFF734FAA1
:1059A000009498F80320022304212020FFF72CFA0A
:1059B000009498F80420022304213820FFF724FAE9
:1059C000009498F80520022304215020FFF71CFAC8
:1059D0000094EA78022306212820FFF715FA0094A4
:1059E0002A79022306214020FFF70EFA00946A79F3
:1059F000022306215620FFF707FA30784FF01003F4
:105A0000012813D00CA206216C20FFF72FFA0F23D8
:105A10000BA202216C20FFF729FA102301B0042108
:105A2000BDE8F04307A26C20FFF720BA03A2EAE723
:105A3000BDE8F883640000204F4E00004F46000090
:105A4000535200004F4B000010B5406A0021C18541
:105A5000C184FEF78BF910BD70B5446A20684069B7
:105A600094F83D10C0F3C0100025212904D118B1CD
:105A7000E584204600F083F82068406994F83E10E1
:105A8000C0F38010222904D118B1E585204600F02A
:105A90005EF8206C40F0100020642046FEF766F9A6
:105AA00070BD10B50146406A0968096889061BD4B3
:105AB0000021C1850168CA6822F48072CA60016849
:105AC0004A6922F001024A6101684A6922F04002F3
:105AD0004A61202180F83E10016B012904D1016840
